:020000040800F2
:100000001007002051020008191D0008891B000874
:10001000C51C000841090008112300080000000069
:100020000000000000000000000000001D1D00088E
:1000300043090008000000001B1D00081F1D0008E8
:100040006B0200086B0200086B0200086B020008DC
:100050006B0200086B0200086B0200086B020008CC
:100060006B0200086B0200086B0200086B020008BC
:100070006B0200086B0200086B0200086B020008AC
:100080006B0200086B0200086B0200080000000011
:100090000000000000000000000000006B020008EB
:1000A0006B0200086B0200086B0200086B0200087C
:1000B0006B0200086B0200086B0200086B0200086C
:1000C0006B0200086B0200086B0200086B0200085C
:1000D0006B020008052300086B0200080000000006
:1000E0006B0200086B0200086B02000800000000B1
:1000F0000000000000000000000000006B0200088B
:10010000000000006B0200086B0200086B02000890
:1001100000000000000000000000000000000000DF
:100120006B0200086B0200086B0200086B020008FB
:100130006B0200080000000000000000000000004A
:100140000000000000000000000000006B0200083A
:100150006B0200086B0200086B0200086B020008CB
:100160006B0200086B0200080000000000000000A5
:10017000000000000000000000000000000000007F
:10018000000000006B0200080000000000000000FA
:100190006B0200086B02000800F002F800F048F85B
:1001A0000AA090E8000C82448344AAF10107DA45D2
:1001B00001D100F03DF8AFF2090EBAE80F0013F0DC
:1001C000010F18BFFB1A43F0010318471822000063
:1001D00038220000103A24BF78C878C1FAD85207F4
:1001E00024BF30C830C144BF04680C6070470000B1
:1001F0000023002400250026103A28BF78C1FBD830
:10020000520728BF30C148BF0B607047642900F017
:100210004D81732900F0E782002070471FB502F07E
:10022000CFF89DE8030000F01FFA1FBD10B510BD08
:1002300000F004FB1146FFF7F1FF02F07BF800F03D
:1002400022FB03B4FFF7F2FF03BC00F053FB0000F6
:100250000948804709480047FEE7FEE7FEE7FEE75A
:10026000FEE7FEE7FEE7FEE7FEE7FEE70448054996
:10027000054A064B70470000B51D000899010008AB
:1002800010010020100700201003002010030020A0
:1002900070B5064600F0CCF9056806F10B0020F0B9
:1002A0000704B4429CBF002070BD2B466A68BAB1F7
:1002B0001068A04210D304F1080188423CBF506886
:1002C000586007D35168101941601168091B01601B
:1002D00058601460101D70BD13465268002AE7D1A3
:1002E0002146284600F0ACF90028DED170BD70B57B
:1002F0000446051F00F09CF90068002C14BF4468F8
:1003000070BD002C18BFAC423CBF20466468F8D3D7
:1003100001680A18AA4218BF456003D12A68054639
:100320001144016028684119A1421CBF6C6070BD76
:100330006168696021680844286070BD53EA020C56
:1003400000F069802DE9F04B4FF00006002B1FBF35
:10035000B3FA83F503FA05F424FA05F65E4012BFFA
:100360001643B2FA82F502FA05F4C5F120051EBF64
:1003700022FA05FC44EA0C04203556EA044C4FEA04
:10038000144418BF641C4FF000084FF0000990425D
:1003900071EB030C39D3002919BFB1FA81F701FAC7
:1003A00007F6B0FA80F700FA07F6C7F120071EBF7C
:1003B00020FA07FC46EA0C062037B6FBF4FCA7EB54
:1003C0000507103F07F01F0BCBF120060CFA0BFBC3
:1003D0002CFA06F644BFB3460026202FA4BF5E4683
:1003E0004FF0000B5BEA060C08BF4FF0010B19EB56
:1003F0000B09ABFB027C48EB0608C01B06FB02CCDA
:100400000BFB03CC71EB0C01C1E70B4602464146E6
:100410004846BDE8F08B13B54FF000004FF00001E7
:10042000AFF30080BDE81C40704700000FB41CB55E
:10043000084B06AA7B4469460090059800F0A9F98C
:1004400004460020694600F0B7F920461CBC5DF860
:1004500014FB00008103000070B50C460546012A1C
:1004600005D02878800600D5EA69002302E0012340
:1004700005E05B1C934202D2E05C0028F9D1A86938
:10048000E618C01AA861286A184428622846AFF303
:10049000008004E0D5E9012114F8010B9047B44233
:1004A000F8D32846AFF3008070BD00002DE9F0417D
:1004B0000646002410687529314616A510D0AFF302
:1004C0000080002802DA404213A507E031688A075D
:1004D00001D512A502E0490704D511A5012401E0C8
:1004E000AFF3008000210A2206F1240709E0B0FBE7
:1004F000F2FCB0FBF2F302FB1C00303078541846DB
:10050000491C0028F3D123462A463046BDE8F04175
:1005100000F0E0B8000000002D0000002B000000FB
:10052000200000002DE9F0410F460546002028621A
:100530002846E968884770B3252805D0D5E9012108
:100540009047286A401CF2E7E96828460026884759
:100550006C2804460AD0682C08D04C2C35D06A2C64
:1005600031D0742C31D07A2C2FD016E0E9680646B1
:1005700028468847B042044608D16C2E23D04FF459
:1005800080662846E9688847044606E06C2E03D05A
:100590004FF4807601E01EE04026E4B1A4F1410072
:1005A000192802D8203446F400663A4621462846E7
:1005B0002E60FFF72BFE60B1012808D0FF1D27F049
:1005C00007070837B4E78026DBE70026D9E73F1D99
:1005D000AEE72046B2E7286ABDE8F0814FF000029E
:1005E00000B5134694469646203922BFA0E80C5029
:1005F000A0E80C50B1F12001BFF4F7AF090728BF04
:10060000A0E80C5048BF0CC05DF804EB890028BF7F
:1006100040F8042B08BF704748BF20F8022B11F0A8
:10062000804F18BF00F8012B704770477047704724
:1006300000487047B400002070477047704770470B
:1006400038B504460A4600206946AFF3008000280A
:1006500008BF38BD02460099204600F0CDF80120C1
:1006600038BD012000F0E2B8F8B5AFF300800546D0
:1006700000200C46102000BF0646A819A0420DD944
:10068000324669460020AFF30080070008BF00F043
:10069000CDF80098A04218BF0546C419FFF7C8FF5F
:1006A00005600746F01D20F007004619284600F0B7
:1006B0000AF8B44208BFF8BDA21B31463868BDE84D
:1006C000F84000F099B800210160C0E901107047BE
:1006D000102070472DE9F0470D4699469246044692
:1006E00000F124080168880604D5E06921F01001B2
:1006F000216000E00120A84201DD471B00E0002747
:10070000A1697A1902EB0900081AA0612078C006D5
:1007100002D42046AFF30080002608E0D4E901218E
:100720001AF806009047206A401C761C20624E454D
:10073000F4DB2078C0060AD52046AFF3008006E03F
:10074000D4E9012130209047206A401C2062381EE5
:10075000A7F10107F4DC07E0D4E9012118F805004E
:100760009047206A401C2062281EA5F10105F3DC99
:100770002046AFF300802078000602D50220BDE8B5
:10078000F0870120FBE7000001694A1C026108783C
:10079000704700B58FB0CDE90131002105910549C1
:1007A0007944CDE9031011466846FFF7BBFE0FB050
:1007B00000BD0000E5FFFFFF0A6802F8010B0A60B8
:1007C000704710B5436913B1AFF3008001E0FFF744
:1007D00043FE012010BD127800F124010A700022AE
:1007E0004A700122EDE711684FF0FF32E9E700009F
:1007F00000487047AC000020034640688C46002843
:1008000018BF88423CBF03464068F8D318681844B4
:10081000884207D00CF1030020F00700001D411AA8
:10082000521A0146081D0A60FFF761BD10B500F0BD
:1008300039F8BDE8104000F02FB870477546FFF753
:10084000D7FFAE4605006946534620F007008546AF
:1008500018B020B5FFF70AFDBDE820404FF00006B4
:100860004FF000074FF000084FF0000B21F0070198
:10087000AC46ACE8C009ACE8C009ACE8C009ACE8DB
:10088000C0098D46704710B50446AFF3008020467E
:10089000BDE81040FFF7D5BC002801D000F02AB811
:1008A0007047000010B5012805D0002103A000F01A
:1008B00027F8012010BD09A1F8E70000534947526D
:1008C000544D454D3A204F7574206F662068656120
:1008D00070206D656D6F7279000000003A204865E8
:1008E0006170206D656D6F727920636F72727570C3
:1008F0007465640001491820ABBEFEE726000200C3
:1009000070B505460C460A2000E06D1C00F011F899
:1009100035B128780028F8D102E0641C00F009F80D
:1009200014B120780028F8D1BDE870400A20AFF358
:10093000008008B569468DF800000320ABBE08BDF5
:10094000FEE770472DE9F0410446876D00F05EF93F
:10095000064694F835000025022806D08020606500
:1009600084F834500120BDE8F0812068016821F04E
:10097000160101602068416921F080014161206C0D
:1009800008B9A06C20B12068016821F0080101605D
:100990002068016821F0010101600CE000F036F9E7
:1009A000801B052807D920206065032084F83500C6
:1009B00084F83450D7E720680068C007EED194F877
:1009C0005C103F208840B860012084F8350084F82E
:1009D00034500020C7E790F83510022903D0802159
:1009E000416501207047052180F8351000680168D5
:1009F00021F00101016000207047000070B504463D
:100A000000F004F90546601C02D004480078044454
:100A100000F0FCF8401BA042FAD370BD100000208B
:100A20002DE9F84FDFF8B8A10022012403254FF08B
:100A30000F090AF1040BAAF1040E00BF0B6804FAB7
:100A400002F63340B34273D10F7907F00307012F49
:100A500001D0022F16D187684FEA420805FA08FC38
:100A600027EA0C07D1F80CC00CFA08FC4CEA070C7A
:100A7000C0F808C04768B7430E79C6F30016964021
:100A80003E4346600E79F643B6070DD0C768560060
:100A900005FA06FC27EA0C07D1F808C00CFA06FC98
:100AA0004CEA070CC0F80CC00E7906F00306022EC3
:100AB00010D1D60800EB8608D8F8206057074FEA17
:100AC000D76C09FA0CF7BE430F6907FA0CF73743E6
:100AD000C8F8207006684FEA420C05FA0CF7BE43CE
:100AE0000F7907F0030707FA0CF7374307604E68E2
:100AF00016F4403F6DD03B4E376847F4804737606F
:100B0000366822F0030706F480460096364E07EB5F
:100B1000060CDCF8086897073F0F09FA07F826EA81
:100B20000806DFF8C880404503D14FF000081EE0FA
:100B30004FE0DFF8BC80404502D14FF0010816E0DD
:100B4000DFF8B080404502D14FF002080FE0DFF837
:100B5000A880404502D14FF0030808E0DFF89C80F0
:100B6000404502D14FF0040801E04FF0070808FAB1
:100B700007F848EA0608CCF80888DAF80060574613
:100B8000D1F804C09E435FEACC2C00D51E433E60E2
:100B9000DBF800605F46D1F804C09E435FEA8C2C0E
:100BA00000D51E433E60DEF800607746D1F804C0F1
:100BB0009E435FEA8C3C00D51E433E60084F083FD1
:100BC0003E68D1F804C09E435FEACC3C00D51E438A
:100BD0003E60521C102AFFF431AFBDE8F88F0000D0
:100BE000083C01404438024000300140000002400F
:100BF0000004024000080240000C024000100240C5
:100C00000AB1816170470904FBE700000148806870
:100C100070470000100000200248816802781144EB
:100C200081607047100000200B4810B5016841F446
:100C300000710160016841F480610160016841F464
:100C400080710160032000F06FF80F2000F006F8BB
:100C500000F024F8002010BD003C024070B50D4D9E
:100C600004464FF47A712878B1FBF0F00A4909681C
:100C7000B1FBF0F000F00CFB48B9102C07D20022B9
:100C80002146501E00F030F800206C6070BD01203D
:100C900070BD0000100000201C0000200A4808B5AC
:100CA000016841F480410160006800F480400090D8
:100CB0000548001F016841F080510160006800F0A4
:100CC0008050009008BD000044380240002809DB35
:100CD00000F01F02012191404009800000F1E02056
:100CE000C0F8001170470000F0B40E4B1B680C46B2
:100CF000C3F30223C3F10705042D00D90425191DF0
:100D0000072901D2002300E0DB1E012606FA05F1C7
:100D1000491E214099409E40761E16403143F0BC4A
:100D200001F0F7BA0CED00E0064900F00702086890
:100D30004FF6FF03184040EA0220034A10430860C0
:100D4000704700000CED00E00000FA052DE9F047C7
:100D50000E46050065D0DFF81481D8F80000F7B220
:100D600000F00700B04207D288F80070D8F8000001
:100D700000F00700B04254D128683D4C810712D5DD
:100D8000400703D5206840F4E05020602878000731
:100D900003D5206840F4604020602068A96820F0F6
:100DA000F000084320602878C0072DD030496868DB
:100DB0000839012812D0022813D0032811D009685D
:100DC000890700292DDA216821F003010143216000
:100DD000FFF71CFF814641F2883A0EE0096889035B
:100DE000EFE709688901ECE7FFF710FFA0EB0901C5
:100DF000514502D90320BDE8F0872068696800F0FA
:100E00000C00B0EB810FEFD1D8F80010404601F094
:100E10000701B14207D90770006800F00700B0422F
:100E200001D00120E7E72878400705D52068E96868
:100E300020F4E050084320602878000706D5206899
:100E4000296920F4604040EAC100206000F038F8D1
:100E50002168084AC1F30311515CC8400649086083
:100E600006480068FFF7FAFE0020C4E7003C024095
:100E700008380240CA2300081C000020140000208B
:100E80000448054900680968044AC1F38221515C9D
:100E9000C84070471C00002008380240DA230008D0
:100EA0000448054900680968044AC1F34231515CAD
:100EB000C84070471C00002008380240DA230008B0
:100EC000154810B5006810F00C02144813D01449EE
:100ED000042A0FD0082A0ED10F4C241F2268236841
:100EE00002F03F025B0207D52068C0F38810A0FB28
:100EF000010106E0084610BD2168C1F38811A1FB7D
:100F000000010023FFF71AFA2168C1F30141491CCF
:100F10004900B0FBF1F010BD083802400024F40095
:100F200040787D012DE9F84F04006ED02078DFF87D
:100F30004C93C007A9F104054AD009F104000168E7
:100F4000C1F38101012908D00068C0F381000228A3
:100F50000AD1D9F80000400206D52868800337D5A9
:100F600060680028E1D033E06068B0F5803F10D0C1
:100F7000B0F5A02F286810D020F4803028602868B1
:100F800020F4802028606068A8B1FFF73FFE064685
:100F90000DE0286840F48030F4E740F480202860B9
:100FA000F7E700BFFFF732FE801B642873D828687C
:100FB0008003F7D50CE0FFF729FE064605E000BFE9
:100FC000FFF724FE801B6428F0D828688003F7D43C
:100FD0002078DFF8AC8280074FF0000A3ED5A748A2
:100FE000001D016811F00C0F08D00068C0F38100EB
:100FF00002280BD1D9F80000400207D428688007E6
:1010000016D5E068012800D112E033E1E068B8B1FC
:101010000120C8F80000FFF7F9FD064605E000BF13
:10102000FFF7F4FD801B0228C0D828688007F7D599
:101030002868216920F0F80040EAC10028600DE02E
:10104000C8F800A0FFF7E2FD064604E0FFF7DEFD6A
:10105000801B02281FD828688007F7D42078000753
:1010600022D5864F87486169703771B101210160CF
:10107000FFF7CCFD064604E0FFF7C8FD801B022801
:1010800009D838688007F7D50EE0C0F800A0FFF750
:10109000BDFD064605E082E0FFF7B8FD801B022893
:1010A0007DD838688007F7D42078400768D5DFF806
:1010B000CCB100270BF13C0BDBF80000C0000BD4D7
:1010C000DBF8001041F08051CBF80010DBF8000095
:1010D000012700F0805000906B4E3068C00510D49E
:1010E000306840F480703060FFF790FD009005E0BC
:1010F000FFF78CFD0099401A022850D83068C005CF
:10110000F6D55E4EA0686C3601280FD005283068F1
:1011100010D020F001003060306820F00400306012
:10112000A068B8B1FFF772FD00900FE0306840F0A2
:101130000100F4E740F004003060F7E7FFF766FDD8
:101140000099411A41F28830814266D830688007A0
:10115000F4D50EE0FFF75AFD009007E0FFF756FDCB
:101160000099411A41F28830814256D83068800790
:10117000F4D42FB1DBF8001021F08051CBF800102F
:10118000A069C8B33D49091D0968C1F3810102295D
:101190004AD00228504607D0C8F8600000E03CE082
:1011A000FFF734FD04463BE04746C8F86000FFF710
:1011B0002DFD064605E000BFFFF728FD801B022835
:1011C0002BD828688001F7D4D4E907010843A16A25
:1011D0002E4A490802EB0141626A41EA8211084342
:1011E00094F82C1040EA0161C9F80010012038661B
:1011F000FFF70CFD044606E03EE000BFFFF706FDEA
:10120000001B022809D828688001F7D534E000BF08
:10121000FFF7FCFC001B022802D90320BDE8F88F71
:1012200028688001F4D427E00128F7D0D9F800001D
:10123000E26900F4800191421CD1226A00F03F0172
:10124000914217D147F6C071626A0140B1EB821F2B
:1012500010D1A26A4FF0FF3300F4403103EB520289
:10126000B1EB024F06D194F82C1000F07060B0EB97
:10127000016F01D00120D1E70020CFE70438024000
:1012800000004742800E4742007000400000FFFF10
:1012900010B5401EB0F1807F01D3012010BD4FF08A
:1012A000E02460610F21601701F033F80020A06195
:1012B00007202061002010BD10B590F83C20012AC5
:1012C00022D0012280F83C20CA688C6822F4407247
:1012D00022434C6822F4806222430C6822F40062AC
:1012E00022430C6922F4805222434C6922F40052BA
:1012F0002243C969002322F480420A4301684A64F8
:1013000080F83C30002010BD022010BD70B590F870
:101310003C20012A2CD0012480F83C40022280F895
:101320003D2003685A689D6822F070060A683243BF
:101330005A60104B02689A420ED0B2F1804F0BD027
:101340000D4B9A4208D00D4B9A4205D00C4B9A4255
:1013500002D00C4B9A4204D1496825F0800319430E
:10136000916080F83D40002180F83C10084670BD37
:10137000022070BD00000140000400400008004051
:10138000000C00400040014010B5040003D094F868
:101390003D0010B107E0012010BD002084F83C00A2
:1013A000204600F01FF8022084F83D00211D20682F
:1013B00000F008FD012084F8460084F83E0084F81F
:1013C0003F0084F8400084F8410084F8420084F82B
:1013D000430084F8440084F8450084F83D00002070
:1013E00010BD000008B500680649884208D10648CB
:1013F000016841F001010160006800F00100009007
:1014000008BD0000000001404438024070B50446A9
:1014100090F83C000025012817D0012684F83C6094
:10142000022084F83D002068826822F0770222F4CE
:101430007F4282600868502838D00DDC20284FD0C9
:1014400005DC90B3102811D14AE0022070BD30288D
:1014500046D040280AD13BE060282FD070280DD01C
:10146000B0F5805F03D0B0F5005F12D0012584F89D
:101470003D60002084F83C00284670BDCB68D1E96F
:101480000121206800F0F7FC2068816841F07701B5
:1014900009E0CB68D1E90121206800F0ECFC20686C
:1014A000816841F480418160E1E719E0CA684968D8
:1014B000206800F095FD5021206806E0CA68496860
:1014C000206800F09EFD6021206800F0DEFCCEE781
:1014D000CA684968206800F083FD40212068F4E76D
:1014E000226801461046F0E710B586B00446142184
:1014F0006846FFF773F80E492068884216D10D48F8
:101500000021026842F001020260006800F0010060
:1015100005904FF4807000900220CDE90101012078
:10152000CDE9031069460448FFF77AFA06B010BD0A
:1015300000000140303802400000024070B504460F
:1015400090F83C0000260D4601280FD0012084F8B9
:101550003C006AB1042A1DD0082A2FD00C2A3FD0A3
:101560000126002084F83C00304670BD022070BD8A
:10157000206800F093FC2068816941F008018161D6
:101580002068816921F004018161206881692A69EC
:10159000114311E0206800F0A9FC2068816941F442
:1015A000006181612068816921F480618161206826
:1015B00081692A6941EA02218161D2E7206800F04D
:1015C000C1FC2068C16941F00801C1612068C1699E
:1015D00021F00401C1612068C1692A69114311E049
:1015E000206800F0DBFC2068C16941F40061C16142
:1015F0002068C16921F48061C1612068C1692A69DC
:1016000041EA0221C161ACE710B5040003D094F8AF
:101610003D0010B107E0012010BD002084F83C001F
:10162000204600F01EF8022084F83D00211D2068AD
:1016300000F0C8FB012084F8460084F83E0084F8DE
:101640003F0084F8400084F8410084F8420084F8A8
:10165000430084F8440084F8450084F83D000020ED
:1016600010BD704710B50446022249B104290ED0BE
:10167000082913D094F84100012816D0012010BD8C
:1016800094F83E000128F9D184F83E200FE094F848
:101690003F000128F2D184F83F2008E094F8400090
:1016A0000128EBD184F8402001E084F84120012298
:1016B000206800F0D3FB12492068884203D1426CB5
:1016C00042F400424264206888420ED0B0F1804F5C
:1016D0000BD00C49884208D00B49884205D00B49F1
:1016E000884202D00A49884204D1816801F007018A
:1016F000062903D0016841F001010160002010BDFE
:10170000000001400004004000080040000C0040C0
:101710000040014070477047F8B50168044608680A
:10172000CA684B6910F00F0F4FF0000559D003F055
:10173000010602F49077374365D0C10705D0D10583
:1017400003D5216C41F001012164410705D5D9077A
:1017500003D0216C41F002012164810705D5D9072E
:1017600003D0216C41F004012164010707D502F088
:101770002001314303D0216C41F008012164216C28
:1017800000293AD0800604D5900602D5204600F004
:1017900079FC20684069216CC0F38010090700D4EF
:1017A00060B3204600F047FC20684069400621D520
:1017B0002068143050E8001F21F0400140E800127A
:1017C000002AF5D1A06BA8B16C490165A06BFFF7A9
:1017D00002F9002811D0A06B016D01B0BDE8F04006
:1017E000084783060FD593060DD52046BDE8F8407F
:1017F00000F048BC2046FFF78EFFF8BD2046FFF7FB
:101800008AFF2564F8BD266B2023012E79D1C606F8
:1018100077D5D60675D508684868009048694006AF
:1018200040D5A16B086840680004000CEAD0A28D86
:101830008242E7D9E085C869B0F5807F2DD0206865
:101840000C3050E8001F21F4807140E80012002A9B
:10185000F5D12068143050E8001F21F0010140E864
:101860000012002AF5D12068143050E8001F21F042
:10187000400140E80012002AF5D184F83E3025638B
:1018800020680C3050E8001F21F0100140E80012E1
:10189000002AF5D1A06BFFF755F8A08DE18D401A15
:1018A00081B229E0A08DE18D401A81B2E08D00283F
:1018B000A8D00029A6D020680C3050E8002F22F4D0
:1018C000907240E80026002EF5D12068143050E8D0
:1018D000002F22F0010240E80026002EF5D184F806
:1018E0003E30256320680C3050E8002F22F01002B3
:1018F00040E80023002BF5D12046FFF70BFFF8BD91
:10190000FFE705062BD5150629D594F83D002128BB
:10191000F5D1A068B0F5805F01D12069B0B1206A2F
:10192000411C2162216800784860E08C401E000460
:10193000000CE084E3D12068C16821F08001C1601F
:101940002068C16841F04001C160D8E7206A008882
:10195000C0F308004860206A801C2062E5E740066A
:10196000CDD55006CBD5CA68204622F04002CA60C9
:1019700084F83D3000F007F9C1E700002720000897
:1019800070B5040004D094F83D00002510B106E0C5
:10199000012070BD84F83C50204600F023F824203C
:1019A00084F83D002068C16821F40051C1602046E0
:1019B00000F0C8FB2068016921F4904101612068B2
:1019C000416921F02A0141612068C16841F4005158
:1019D000C1602564202084F83D0084F83E0000208A
:1019E00070BD000010B586B0044614216846FEF7AD
:1019F000F5FD18492068884229D11748002102685E
:101A000042F010020260006800F0100005901248D9
:101A10001438026842F001020260006800F0010020
:101A200005904FF4C06000900220CDE90101032031
:101A300003900720049069460848FEF7F1FF002252
:101A400001212520FFF750F92520FFF73FF906B0C7
:101A500010BD000000100140443802400000024068
:101A600090F83E30202B0ED159B152B190F83C3055
:101A7000012B08D0012380F83C300023036300F0E1
:101A8000E7BB012070470220704700001049CA7868
:101A9000091FA2F13003092B09D8DAB28B6803EBD6
:101AA000830302EB43028A6000220A700CE0412AA1
:101AB00002D0422A06D007E08A680A23B2FBF3F27A
:101AC0008A6001E08A68CA6004220149FFF7C8BF42
:101AD000040000202DE9F843044690F83D001F461D
:101AE00016460D4620284CD1C5B1BEB194F83C0035
:101AF000012846D0012084F83C004FF00008C4F8CB
:101B00004080212084F83D00FFF780F8A6848146BC
:101B1000E684A068B0F5805F03D004E00120BDE852
:101B2000F883206928B12E465FF0000584F83C80D8
:101B30000EE00026FAE78021204600F0A6FBA0B9BF
:101B4000AEB116F8010B21684860E08C401EE084BD
:101B5000E08C4B464FF0000200970028EBD14FF08D
:101B60004001204600F091FB30B10320D7E735F863
:101B7000020BC0F30800E6E7202084F83D000020B7
:101B8000CDE70220CBE77047FEE7000070B586B0D6
:101B900014216846FEF722FD16480024016841F032
:101BA00004010160016801F004010591016841F040
:101BB00080010160016801F080010591016841F038
:101BC0000101016000680C4E00F001004FF4005567
:101BD0000590002229463046FFF712F801200095B3
:101BE000CDE90104694630460394FEF719FF06B0BB
:101BF00070BD0000303802400008024010B596B0B9
:101C000000240F9410941194129413941C2108A88A
:101C10001494FEF7E3FC20216846FEF7DFFC284819
:101C20002649016063214160202181603221C0E9A1
:101C3000031444618461FFF7A7FB08B172B6FEE7A5
:101C40004FF480500F900FA91D48FFF7DFFB08B13C
:101C500072B6FEE71A48FFF7D7FC08B172B6FEE786
:101C6000139413A916481494FFF750FB08B172B6E9
:101C7000FEE76020CDE908040A940B940C940D94BF
:101C8000002208A90E480E94FFF758FC08B172B65E
:101C9000FEE700944FF40050CDE904400294019413
:101CA0000394694606480794FFF706FB08B172B62D
:101CB000FEE70348FFF718FC16B010BD0000014016
:101CC00020000020FEE7000070B506460D461E20ED
:101CD000FEF7DEFA04462B4632460AA1FEF7A6FBC3
:101CE00082B24FF47A7321460948FFF7F3FE0A23C4
:101CF000032208490648FFF7EDFE2046BDE8704084
:101D0000FEF7F5BA25732E76616C3D256C640000F4
:101D10006800002001000020FEE770477047FEF7D2
:101D20007BBF000030B593B030216846FEF756FC0B
:101D300014210CA8FEF752FC1C480025016841F054
:101D400080510160006800F08050119018480168CF
:101D500041F4404101600068022400F440401190C9
:101D600001200090000401908001CDE906400C2084
:101D700008906020CDE9090404200B906846FFF725
:101D8000D1F808B172B6FEE70CA90F2081E8310046
:101D90004FF48050CDE90F0503210CA8FEF7D6FFC4
:101DA000002801D072B6FEE713B030BD40380240C3
:101DB000007000400248016841F470010160704702
:101DC00088ED00E0F0B502681D4B1E4C9F031E4DD0
:101DD0001E4E984207D0B84205D0A04203D0A84278
:101DE00001D0B04204D122F0700C4A6842EA0C02E1
:101DF000984210D0B8420ED0A0420CD0A8420AD0CF
:101E0000B04208D0124CA04205D0124CA04202D0E1
:101E1000114CA04203D122F44074CA6822434C6999
:101E200022F08002224302608A68C2620A688262EB
:101E3000984201D10969016301214161F0BD0000AF
:101E4000000001400004004000080040000C004079
:101E500000400140004401400048014010B501F03D
:101E60001F030121046A99408C430462016A9A406D
:101E70001143016210BD10B5846842EA032224F4C4
:101E80007F440A432243826010BD826822F07002C0
:101E90000A4342F0070181607047000030B5026AD2
:101EA00022F001020262026A4368846924F0730529
:101EB0000C682C4322F002058A682A430A4DA84286
:101EC0000BD122F00805CA6823F440732A434D69F8
:101ED00022F004021D438B692B43436084614968EF
:101EE0004163026230BD00000000014030B5026A6B
:101EF00022F010020262026A436884690D6824F4C9
:101F0000E64444EA05248D6822F0200242EA0512E4
:101F10000B4DA8420ED1CD6822F0800242EA051294
:101F20004D6923F4406343EA85038D6922F0400242
:101F300043EA85034360846149688163026230BD7E
:101F40000000014030B5026A22F480720262036A26
:101F50004268C46923F4007324F073050C682C43B1
:101F60008D6843EA05230C4DA8420ED1CD6823F4B9
:101F7000006343EA05234D6922F4405242EA051208
:101F80008D6923F4806342EA05124260C4614968A6
:101F9000C163036230BD00000000014030B5026A39
:101FA00022F480520262046A4268C3690D6823F415
:101FB000E64343EA05238D6824F4005444EA0534DB
:101FC000064DA84204D14D6922F4804242EA8512AE
:101FD0004260C36149680164046230BD0000014091
:101FE00010B5036A046A24F001040462846924F0D1
:101FF000F00444EA021423F00A020A4384610262F4
:1020000010BD10B5036A23F0100303628369046AEC
:1020100023F4704343EA023224F0A00343EA01119F
:102020008261016210BD10B5806B0021C185C18441
:10203000FFF771FB10BD01680C3151E8002F22F44D
:10204000907241E80023002BF5D10168143151E86A
:10205000002F22F0010241E80023002BF5D1016B93
:10206000012909D101680C3151E8002F22F010023A
:1020700041E80023002BF5D1202180F83E100021FB
:102080000163704708B590F83E10222901D0022064
:1020900008BD82684FF480539A4201D1016921B191
:1020A000816A9A421BD04AB10AE00268816A52688A
:1020B000C2F308020A80816A891C08E0026972B1D1
:1020C0000268526802F07F020A70816A491C8162CC
:1020D000C18D491E0904090CC18503D019E00268AD
:1020E0005268F1E70168CA6822F02002CA600168FC
:1020F000CA6822F48072CA6001684A6922F001024B
:102100004A61202180F83E10016B012903D0FFF7BE
:10211000BDFC002008BD0021016301680C3151E8BD
:10212000002F22F0100241E80023002BF5D10168B6
:102130000A68D20602D50A6849680091818DFFF7C6
:10214000E9FAE6E770B5044600680169E26821F43F
:102150004051114301612169A068E2690843616946
:10216000114308432168CA6849F20C639A43024349
:10217000CA6020684169A26921F44071114341613C
:1021800031492068884202D03049884202D1FEF7A6
:1021900087FE01E0FEF774FEE26900231921642541
:1021A0003226B2F5004F626828D0A0FB0101930FE0
:1021B0009200FEF7C3F80146B0FBF5F06FF018028D
:1021C000504301EB800006EB0010B0FBF5F000F08F
:1021D000F002B1FBF5F002EB0012B1FBF5F06FF08D
:1021E0001803584301EB800006EB0010B0FBF5F03C
:1021F00000F00F0021681044886070BDA0FB010151
:1022000092185B41FEF79AF80146B0FBF5F0020127
:10221000B1FBF5F06FF01803584301EB800006EBBB
:10222000C000B0FBF5F000F0F80002EB4002B1FB9B
:10223000F5F0584301EB800006EBC000B0FBF5F071
:1022400000F00700D6E70000001001400014014034
:1022500081628285C28500210164222280F83E20AD
:1022600080F83C10016921B10168CA6842F48072AB
:10227000CA6001684A6942F001024A610068C168A7
:1022800041F02001C160002070472DE9F0419846DF
:1022900017460E460446069D27E0681C25D02DB142
:1022A000FEF7B4FCA0EB0800A8421ED920680C3051
:1022B00050E8001F21F4D07140E80012002AF5D147
:1022C0002068143050E8001F21F0010140E800129E
:1022D000002AF5D1202084F83D0084F83E0000203B
:1022E00084F83C000320BDE8F0812068006836EAED
:1022F000000004D00020B842CFD00020F3E7012036
:10230000F9E700000148FFF707BA00006800002065
:10231000FEE70907090E002804DB00F1E02080F841
:102320000014704700F00F0000F1E02080F8141D49
:1023300070470000FEF778FCFFF7F4FCFFF726FC7F
:102340001B481A49002501604FF4E131C0E901152D
:102350000C21C560C0E904518561C561FFF710FB20
:1023600008B172B6FEE7FFF749FC04221149104894
:10237000FFF776FB0F4C0E48241F00214838A5605C
:10238000FFF770F90A4D483D0BA0A168FFF79CFCD0
:102390001E20FEF733FB09A0E168FFF795FC1E2025
:1023A000FEF72CFB2968E0684863EDE70010014068
:1023B00068000020040000206E3000006E31000034
:1023C0004FF04070E1EE100A70470000000000007E
:1023D00000000102030406070809000000000102D2
:1023E0000304000004240008000000202000000076
:1023F000D40100082424000820000020F00600007A
:10240000F001000800FFFFFF0000000000000000D6
:1024100000000000010000001000000000000000AB
:042420000024F400A0
:040000050800019955
:00000001FF
